:100000000C94B5000C94CA000C94CA000C94CA005D
:100010000C94CA000C94CA000C94CA000C94CA0038
:100020000C94CA000C94CA000C94CA000C947B096E
:100030000C94CA000C947A090C94CA000C94CA005F
:100040000C94CA000C94CA000C94CA000C94CA0008
:100050000C94CA000C94CA000C94CA000C94CA00F8
:100060000C94CA000C94CA006E616E00696E660042
:1000700000407A10F35A00A0724E18090010A5D45F
:10008000E80000E87648170000E40B54020000CABC
:100090009A3B000000E1F505000080969800000002
:1000A00040420F000000A086010000001027000061
:1000B0000000E803000000006400000000000A00E7
:1000C000000000000100000000002C76D888DC67EA
:1000D0004F0823DFC1DFAE59E1B1B796E5E3E45342
:1000E000C63AE651997696E8E6C28426EB898C9B5F
:1000F00062ED407C6FFCEFBC9C9F40F2BAA56FA5FF
:10010000F490055A2AF75C936B6CF9676DC11BFC80
:10011000E0E40D47FEF520E6B500D0ED902E03009B
:10012000943577050080841E080000204E0A0000E8
:1001300000C80C333333330F986E12831141EF8DA7
:100140002114893BE65516CFFEE6DB18D1844B38E7
:100150001BF77C1D901DA4BBE424203284725E2218
:100160008100C9F124ECA1E53D2711241FBECFEF8A
:10017000D8E0DEBFCDBF11E0A0E0B1E0E6E4F7E2F9
:1001800002C005900D92A031B107D9F70E94E30992
:100190000C94A1130C94000048EC50E064EA74E85D
:1001A0006093BC009091BC0097FD0AC029EC30E040
:1001B00003C02150304021F09091BC0097FFF9CF4F
:1001C0009091B900987F983069F09091B900987F2C
:1001D000903141F04150504019F78091B900887F2B
:1001E00090E008958093BB007093BC009091BC0098
:1001F00097FD0AC029EC30E003C02150304021F0C7
:100200009091BC0097FFF9CF9091B900987F9831F9
:1002100009F780E090E008954F925F926F927F928D
:100220008F92AF92CF92DF92EF92FF920F931F9334
:10023000CF93DF93CDB7DEB72A970FB6F894DEBF22
:100240000FBECDBF0A8709831A83F22E2B833C830E
:100250004D835E83362F6F83272F7887482F8987BA
:1002600081E090E0BC0102C0660F771F1A95E2F7AB
:100270008B01E0FA442440F801C0440C5A95EAF797
:1002800001C0880FFA94EAF7862B8429C0FA662405
:1002900060F801C0660C3A95EAF78629AA2DA1708C
:1002A00001C0AA0F2A95EAF78A2BE82DE17001C058
:1002B000EE0F4A95EAF7782E7E2A8A850E94CC00B6
:1002C00048EC50E034E87092BB003093BC00809161
:1002D000BC0087FD09C089EC90E002C0019721F0C5
:1002E0002091BC0027FFFACF8091B900887F883227
:1002F000F9F04150504039F78091B900887F81155D
:10030000B9F081E090E02A960FB6F894DEBF0FBEF8
:10031000CDBFDF91CF911F910F91FF90EF90DF90B4
:10032000CF90AF908F907F906F905F904F90089597
:100330000095072148EC50E034E80093BB0030936F
:10034000BC008091BC0087FD09C089EC90E002C030
:10035000019721F02091BC0027FFFACF8091B900CE
:10036000887F883259F04150504039F79091B90058
:10037000987F81E09111C6CF80E0C4CF80E090E00B
:10038000C2CF48EC50E064E88093BB006093BC00AF
:100390009091BC0097FD0AC029EC30E003C02150C9
:1003A000304021F09091BC0097FFF9CF9091B900B7
:1003B000987F983241F04150504031F78091B90018
:1003C000887F90E0089580E090E0089581E090E0DB
:1003D00008952F923F924F925F926F927F928F92E9
:1003E000AF92BF92CF92DF92EF92FF920F931F9343
:1003F000CF93DF93CDB7DEB72C970FB6F894DEBF5F
:100400000FBECDBF0C8709831A83F22E2B83B32E28
:100410003C83D42E4D83352F5E83262F6F83472F49
:100420007887582F898781E090E0BC0102C0660F71
:10043000771F1A95E2F78B01A0FA222420F801C059
:10044000220C3A95EAF701C0880FFA94EAF7862B56
:10045000822980FA442440F801C0440C2A95EAF726
:10046000F82EF42888A180FB662460F801C0660C91
:100470004A95EAF7F62889A1A82FA17001C0AA0F12
:100480005A95EAF7FA2AEC2DE17001C0EE0FDA94E2
:10049000EAF7FE2A7E2D71707A871B868A859B85F6
:1004A00001C0880FBA94EAF7F82A8C850E94CC0024
:1004B00048EC50E034E8F092BB003093BC008091EF
:1004C000BC0087FD09C089EC90E002C0019721F0D3
:1004D0002091BC0027FFFACF8091B900887F883235
:1004E00011F14150504039F78091B900887F811552
:1004F000D1F081E090E02C960FB6F894DEBF0FBEED
:10050000CDBFDF91CF911F910F91FF90EF90DF90C2
:10051000CF90BF90AF908F907F906F905F904F90F3
:100520003F902F90089500950F2148EC50E034E85B
:100530000093BB003093BC008091BC0087FD09C0D4
:1005400089EC90E002C0019721F02091BC0027FFC8
:10055000FACF8091B900887F883259F041505040DD
:1005600039F79091B900987F81E09111C3CF80E075
:10057000C1CF80E090E0BFCF6F927F928F92AF9219
:10058000CF92EF920F931F93CF93DF93CDB7DEB748
:100590003C01FC016083418322830383E482C582A2
:1005A000A68287828D858087FFEF21EE84E0F1505F
:1005B00020408040E1F700C0000088248394AA24F2
:1005C000A394C12CE12CF30100811181228133819C
:1005D000448155816681778180850E940C01892B39
:1005E00059F18FE19EE40197F1F700C000008FE11F
:1005F0009EE40197F1F700C000008FE19EE40197AF
:10060000F1F700C000008FE19EE40197F1F700C010
:10061000000081E090E0EFE1FEE43197F1F700C0E7
:100620000000DF91CF911F910F91EF90CF90AF908D
:100630008F907F906F900895EFE1FEE43197F1F78E
:1006400000C0000088248394AA24A394C12CE12C28
:10065000F3010081118122813381448155816681BA
:10066000778180850E940C01892B09F68FE19EE439
:100670000197F1F700C00000F30100811181228190
:100680003381448155816681778180850E940C0188
:10069000892B09F0B2CFEFE1FEE43197F1F700C00A
:1006A0000000812CAA24A394C12CE12CF301008129
:1006B00011812281338144815581668177818085D2
:1006C0000E940C01892B09F09ECFEFE1FEE43197E7
:1006D000F1F700C00000812CAA24A394C12CE12CC6
:1006E000F30100811181228133814481558166812A
:1006F000778180850E940C01892B09F08ACF812C9B
:10070000A12CC12CEE24E394F301008111812281FC
:100710003381448155816681778180850E940C01F7
:10072000892B09F076CFE12CF30100811181228120
:100730003381448155816681778180850E940C01D7
:10074000892B09F066CFAA24A394CC24C394F30187
:1007500000811181228133814481558166817781B5
:1007600080850E940C01892B09F053CFA12CC12C4C
:10077000F301008111812281338144815581668199
:10078000778180850E940C01892B09F042CF882453
:100790008394AA24A394CC24C394EE24E394F30179
:1007A0000081118122813381448155816681778165
:1007B00080850E940C01892B09F02BCF812CA12C64
:1007C000C12CE12CF301008111812281338144810C
:1007D00055816681778180850E940C01892B09F003
:1007E00018CF88248394F301008111812281338101
:1007F000448155816681778180850E940C019C012E
:1008000081E0232B09F480E090E005CF2F923F9206
:100810004F925F926F927F929F92AF92BF92CF92D0
:10082000DF92EF92FF920F931F93CF93DF93CDB799
:10083000DEB72A970FB6F894DEBF0FBECDBF0A878A
:1008400009831A83922E2B83932F3C834D835E83DF
:10085000462F6F837887682F898721E030E0F90180
:1008600002C0EE0FFF1F1A95E2F78F01F90102C0D7
:10087000EE0FFF1F9A95E2F7CF01802B01C0220FE8
:100880009A94EAF7822B2E2D221F2227221F01C0C5
:10089000220F5A95EAF7F82EF22AE4FAAA24A0F8D1
:1008A00001C0AA0C6A95EAF7FA28E5FAAA27A0F986
:1008B00001C0AA0F7A95EAF7FA2AE6FAEE27E0F9DC
:1008C00001C0EE0F4A95EAF7FE2A8A850E94CC0005
:1008D00048EC50E034E8F092BB003093BC008091CB
:1008E000BC0087FD09C089EC90E002C0019721F0AF
:1008F0002091BC0027FFFACF8091B900887F883211
:1009000041F14150504039F78091B900887F8115FD
:1009100001F181E090E0E7ECF0E03197F1F700C001
:1009200000002A960FB6F894DEBF0FBECDBFDF9150
:10093000CF911F910F91FF90EF90DF90CF90BF90DC
:10094000AF909F907F906F905F904F903F902F90CF
:10095000089500950F2148EC50E034E80093BB0067
:100960003093BC008091BC0087FD09C089EC90E009
:1009700002C0019721F02091BC0027FFFACF80919F
:10098000B900887F883241F04150504039F780915A
:10099000B900887F8111BDCF8A8121E030E08901D3
:1009A00001C0000F8A95EAF78C81A90102C0440FAB
:1009B000551F8A95E2F7CA01802B9B8101C0220F47
:1009C0009A95EAF7822BE0FACC24C0F8998501C009
:1009D000CC0C9A95EAF7C82AE1FA662460F8888573
:1009E00001C0660C8A95EAF76C28E2FA442440F8C4
:1009F0008F8101C0440C8A95EAF74628E3FA222445
:100A000020F88E8101C0220C8A95EAF7242889817A
:100A10000E94CC0048EC50E034E82092BB003093B8
:100A2000BC008091BC0087FD09C089EC90E002C049
:100A3000019721F02091BC0027FFFACF8091B900E7
:100A4000887F883241F04150504039F78091B90099
:100A5000887F81115ECF302F3095322148EC50E0F5
:100A600064E83093BB006093BC008091BC0087FDBC
:100A700009C089EC90E002C0019721F02091BC00F0
:100A800027FFFACF8091B900887F883241F041502A
:100A9000504039F78091B900887F81113ACF80E0CA
:100AA00090E039CF3F924F925F926F927F928F92F8
:100AB0009F92AF92BF92CF92DF92EF92FF920F93ED
:100AC0001F93CF93DF93CDB7DEB76E970FB6F89431
:100AD000DEBF0FBECDBF0A871B872C873D874E87A1
:100AE0005F87688B798B8A8BC601009709F46BC18D
:100AF00067019701280F391F3E8F2D8FEE24E39455
:100B0000F12C94E8492EF601308089E0FE013A96F6
:100B1000DE01119601900D928A95E1F70A81970105
:100B200002C0220F331F0A95E2F789018C81A701C9
:100B300002C0440F551F8A95E2F7522E542A8B812A
:100B4000F70102C0EE0FFF1F8A95E2F75E2A832DA0
:100B5000881F8827881F2E8101C0880F2A95EAF7F1
:100B6000582A34FAAA24A0F8B12C8985950102C02C
:100B7000220F331F8A95E2F7522A35FA882480F82B
:100B8000912C8885A40102C0440F551F8A95E2F775
:100B9000542A36FA662460F8712C8F81F30102C062
:100BA000EE0FFF1F8A95E2F75E2A89810E94CC0032
:100BB00048EC50E05092BB004092BC008091BC00D9
:100BC00087FD09C089EC90E002C0019721F02091D7
:100BD000BC0027FFFACF8091B900887F883241F1AD
:100BE0004150504039F78091B900887F811501F15B
:100BF00087EC90E00197F1F700C0000081E090E001
:100C00006E960FB6F894DEBF0FBECDBFDF91CF91C9
:100C10001F910F91FF90EF90DF90CF90BF90AF901A
:100C20009F908F907F906F905F904F903F9008952E
:100C30000095052148EC50E034E80093BB00309368
:100C4000BC008091BC0087FD09C089EC90E002C027
:100C5000019721F02091BC0027FFFACF8091B900C5
:100C6000887F883241F04150504039F78091B90077
:100C7000887F8111BDCF8A8121E030E0A90102C0C7
:100C8000440F551F8A95E2F75C8F4B8F8C81F901D9
:100C900002C0EE0FFF1F8A95E2F7142F1E2B8B81E7
:100CA00001C0220F8A95EAF7122BF32DF170FB8B0E
:100CB0001C8A89852B893C8902C0220F331F8A95A3
:100CC000E2F7122B31FA332730F93D8B1E8A8885E3
:100CD0004D895E8902C0440F551F8A95E2F7142B97
:100CE00032FA552750F95F8B188E8F81EF89F88D76
:100CF00002C0EE0FFF1F8A95E2F71E2B33FA332452
:100D000030F8398E1A8E8E81298D3A8D02C0220FCD
:100D1000331F8A95E2F7122B89810E94CC0048ECA0
:100D200050E034E81093BB003093BC008091BC00CD
:100D300087FD09C089EC90E002C0019721F0209165
:100D4000BC0027FFFACF8091B900887F883241F03C
:100D50004150504039F78091B900887F811148CFC8
:100D60003B8D3095312348EC50E064E83093BB0074
:100D70006093BC008091BC0087FD09C089EC90E0C5
:100D800002C0019721F02091BC0027FFFACF80918B
:100D9000B900887F883241F04150504039F7809146
:100DA000B900887F811124CFE7ECF0E03197F1F7AB
:100DB00000C00000FFEFCF1ADF0A2D8D3E8D2C15ED
:100DC0003D0509F0A0CE80E090E01ACF4F925F92EF
:100DD0006F927F928F92AF92CF92EF92FF920F938A
:100DE0001F93CF93DF93CDB7DEB729970FB6F89453
:100DF000DEBF0FBECDBF09831A832B833C834D8397
:100E00005E836F83788789873701412C512CEF28C7
:100E100009F443C088248394A12CC12CE12C0981BE
:100E20001A812B813C814D815E816F817885898516
:100E30000E940C01892BB1F081E090E029960FB659
:100E4000F894DEBF0FBECDBFDF91CF911F910F9100
:100E5000FF90EF90CF90AF908F907F906F905F90CA
:100E60004F900895812CCC24C39409811A812B8141
:100E70003C814D815E816F81788589850E940C015E
:100E80009C018FEF481A580A6414750419F0232B3B
:100E900099F6C0CF81E0232B09F480E090E0CECF1B
:100EA0004F925F926F927F928F92AF92CF92EF921A
:100EB000FF920F931F93CF93DF93CDB7DEB72997A0
:100EC0000FB6F894DEBF0FBECDBF09831A832B8304
:100ED0003C834D835E836F83788789873701412CFC
:100EE000512CEF2809F441C088248394A12CC12CF3
:100EF000E12C09811A812B813C814D815E816F81BA
:100F0000788589850E940C01892BB1F081E090E001
:100F100029960FB6F894DEBF0FBECDBFDF91CF91FB
:100F20001F910F91FF90EF90CF90AF908F907F9097
:100F30006F905F904F900895812C09811A812B81C9
:100F40003C814D815E816F81788589850E940C018D
:100F50009C018FEF481A580A6414750419F0232B6A
:100F6000A9F6C2CF81E0232B09F480E090E0D0CF36
:100F70004F925F926F927F928F92AF92CF92EF9249
:100F8000FF920F931F93CF93DF93CDB7DEB72997CF
:100F90000FB6F894DEBF0FBECDBF09831A832B8333
:100FA0003C834D835E836F83788789873701412C2B
:100FB000512CEF2809F445C088248394A12CC12C1E
:100FC000E12C09811A812B813C814D815E816F81E9
:100FD000788589850E940C01892BB1F081E090E031
:100FE00029960FB6F894DEBF0FBECDBFDF91CF912B
:100FF0001F910F91FF90EF90CF90AF908F907F90C7
:101000006F905F904F900895812CCC24C394EE2470
:10101000E39409811A812B813C814D815E816F812E
:10102000788589850E940C019C018FEF481A580A27
:101030006414750419F0232B89F6BECF81E0232BAD
:1010400009F480E090E0CCCF4F925F926F927F9254
:101050008F92AF92CF92EF92FF920F931F93CF9305
:10106000DF93CDB7DEB729970FB6F894DEBF0FBE7A
:10107000CDBF09831A832B833C834D835E836F83AB
:10108000788789873701412C512CEF2809F443C018
:1010900088248394A12CC12CE12C09811A812B81F5
:1010A0003C814D815E816F81788589850E940C012C
:1010B000892BB1F081E090E029960FB6F894DEBF5D
:1010C0000FBECDBFDF91CF911F910F91FF90EF9099
:1010D000CF90AF908F907F906F905F904F900895DA
:1010E000812CEE24E39409811A812B813C814D816E
:1010F0005E816F81788589850E940C019C018FEF4C
:10110000481A580A6414750419F0232B99F6C0CFB5
:1011100081E0232B09F480E090E0CECF8F92AF9254
:10112000BF92CF92DF92EF92FF920F931F93CF93D4
:10113000DF93CDB7DEB72A970FB6F894DEBF0FBEA8
:10114000CDBF09831A832B833C834D835E836F83DA
:1011500078878A878987812CA12CC12CEE24E3947F
:101160000E940C01892BA1F081E090E02A960FB635
:10117000F894DEBF0FBECDBFDF91CF911F910F91CD
:10118000FF90EF90DF90CF90BF90AF908F90089539
:10119000E12C09811A812B813C814D815E816F8117
:1011A000788589850E940C019C0181E0232BE9F65A
:1011B00080E0DBCF8F92AF92BF92CF92DF92EF921F
:1011C000FF920F931F93CF93DF93CDB7DEB72A978C
:1011D0000FB6F894DEBF0FBECDBF09831A832B83F1
:1011E0003C834D835E836F8378878A878987812CD0
:1011F000A12CCC24C394EE24E3940E940C01892BEF
:10120000A1F081E090E02A960FB6F894DEBF0FBE01
:10121000CDBFDF91CF911F910F91FF90EF90DF90A5
:10122000CF90BF90AF908F900895C12CE12C098191
:101230001A812B813C814D815E816F817885898502
:101240000E940C019C0181E0232BE1F680E0DACFC3
:101250008F92AF92BF92CF92DF92EF92FF920F9355
:101260001F93CF93DF93CDB7DEB72A970FB6F894CD
:10127000DEBF0FBECDBF09831A832B833C834D8312
:101280005E836F8378878A878987812CA12CC12C04
:10129000E12C0E940C01892BD1F081E090E0EFE17C
:1012A000FEE43197F1F700C000002A960FB6F894DB
:1012B000DEBF0FBECDBFDF91CF911F910F91FF9089
:1012C000EF90DF90CF90BF90AF908F9008958824DB
:1012D000839409811A812B813C814D815E816F81CC
:1012E000788589850E940C019C0181E0232BB1F651
:1012F00080E0D4CF18950F920FB60F921F92112451
:101300002F933F934F935F936F937F938F939F930D
:10131000EF93FF9320918800309189008091000124
:1013200067E873E1869FA001879F500D1124E1E0DB
:10133000F0E0811511F0EFEFFFEF60910101709186
:101340000201E69FC001E79F900DF69F900D1124CA
:10135000240F351F820F931F90938900809388007C
:1013600085B191E0892785B981E0909100019111C3
:1013700080E080930001FF91EF919F918F917F9189
:101380006F915F914F913F912F911F900F900FBEE2
:101390000F90189523EC35EF48E450E40E942E108E
:1013A00020E030E04AEF53E40E94861120E030E074
:1013B00048EF52E40E94BD0F0E94A01070930201FA
:1013C000609301010895CDB7DEB7E2970FB6F894A8
:1013D000DEBF0FBECDBF209A289A83E080936F00B6
:1013E00010928000809381008CE790E090938900B8
:1013F0008093880078949E01225E3F4F38A72FA3E8
:1014000089E0F90111928A95E9F7FFEF21EE34E0C6
:10141000F15020403040E1F700C0000084E08F939D
:1014200045E0842E56E0A52E67E0C62EEE24E39418
:1014300000E023E042E06EE4CE014E960E94BC0242
:101440000F90C12CD12CE12CA12C00E010E01BA6A8
:101450001CA61DA61EA673EC472E75EF572E78EC22
:10146000672E7FE3772E312C212C19A61AA6E4E8EB
:10147000FE2E809084009090850020E030E0A9014D
:101480006C2D7D2D8E2D9A2D0E94811187FF84C099
:101490000F5F1F4F23EC35EF48E450E4632D722DAE
:1014A00089A59AA50E942E1020E030E04AEF53E46F
:1014B0000E94861120E030E048EF52E40E94BD0F08
:1014C0000E94A01070930201609301012BA53CA51E
:1014D0004DA55EA5C301B2010E9486119B01AC011E
:1014E000632D722D89A59AA50E94BD0F362E272E39
:1014F00089A79AA723EC35EF48E450E40E948111B4
:1015000087FD25C077FA709477F8709483EC382EB5
:1015100095EF292E28E429A730E43AA72BA53CA56E
:101520004DA55EA56C2D7D2D8E2D9A2D0E94BD0F93
:101530006B01E82EA92E60918400709185006815DA
:101540007905C8F41BA61CA61DA61EA692CF20E0F6
:1015500030E0A901632D722D89A59AA50E9429105A
:101560001816E4F277FA709477F87094312C212CE5
:1015700019A61AA6D3CF6819790980E090E00E94D5
:10158000CF1020E034E244E758E40E942E106BA70D
:101590007CA78DA79EA76DCF89E0FE017E96DE0118
:1015A000559601900D928A95E1F78E89E1E0F0E081
:1015B00002C0EE0FFF1F8A95E2F7F8ABEFA78F8905
:1015C00021E030E002C0220F331F8A95E2F7BE2EE1
:1015D000B22A8A8DE1E0F0E002C0EE0FFF1F8A958B
:1015E000E2F7BE2A8D890E94CC0088EC90E0B09290
:1015F000BB00F092BC002091BC0027FD0AC029EC82
:1016000030E003C02150304021F04091BC0047FF42
:10161000F9CF2091B900287F283209F47FC00197C3
:1016200031F78091B900887F811509F477C020E0F7
:1016300030E040E85FE36C2D7D2D8E2D9A2D0E94C9
:10164000BD0F20E030E04AE754E40E948611B62E38
:10165000C72ED82EE92EB80180E090E00E94CF106E
:101660009B01AC016B2D7C2D8D2D9E2D0E942E108B
:101670009F938F937F936F9323E031E03F932F935A
:101680001F9293E19F93E1E0F0E0EC0FFD1FFF93C9
:10169000EF930E9411135C0199E0FE017E96DE013A
:1016A000559601900D929A95E1F79E012F5F3F4F5D
:1016B0006901A20EB31E0FB6F894DEBF0FBECDBFF8
:1016C00080E090E006C0FFEFCF1ADF0ACA14DB0407
:1016D000E1F00097C1F7F601E0800D891E892F899E
:1016E000388D498D5A8D6B8D7C8D8D8D0E940604B1
:1016F00031E020E0892B09F430E0832F922FFFEFB7
:10170000CF1ADF0ACA14DB0421F701E010E0C12C74
:10171000D12C20E8E22E3FEBA32EBCCE5FA5509546
:101720005B2128EC30E05093BB00F092BC0080912C
:10173000BC0087FD09C089EC90E002C0019721F050
:101740004091BC0047FFFACF8091B900887F883272
:1017500041F02150304039F78091B900887F8111E4
:1017600066CF8E8921E030E002C0220F331F8A95B8
:10177000E2F738AB2FA78F89E1E0F0E002C0EE0F6F
:10178000FF1F8A95E2F7FAABE9ABBE2EB22A8D892C
:101790000E94CC0088EC90E0B092BB00F092BC00BC
:1017A0002091BC0027FD0AC029EC30E003C0215085
:1017B000304021F04091BC0047FFF9CF2091B900A3
:1017C000287F283239F0019739F78091B900887F56
:1017D00081112DCF5FA55095F9A95F2328EC30E04A
:1017E0005093BB00F092BC008091BC0087FD09C003
:1017F00089EC90E002C0019721F04091BC0047FFC6
:10180000FACF8091B900887F883209F410CF215037
:10181000304031F78091B9000ACFADE0B0E0E3E1AC
:10182000FCE00C94850F7C013B015A01FC011782FE
:101830001682838181FF45C3F7012381F30123FDD4
:10184000859123FF81913F01811509F441C08532C3
:1018500039F423FD959123FF91913F01953239F49D
:10186000B70190E00E94E11265015601E5CF10E05A
:10187000912C812CF0E28F1608F03CC09B3279F15C
:1018800060F4903271F1933291F19E3209F048C0C8
:1018900086FC1EC0689486F806C09D3229F19033FC
:1018A00059F5689480F8F30123FD959123FF9191F8
:1018B0003F019111DFCF082D097F903709F4C3C292
:1018C00008F0B9C2983509F4C0C29F3609F4C2C203
:1018D000F701868197812D96E2E10C94A10F68941F
:1018E00081F8689482F8DFCF689483F8DCCF68943D
:1018F00084F8D9CF87FC1CC080ED890F8A3028F688
:1019000086FE06C03AE0139F800D1124182FCBCF1E
:101910004AE0949E800D1124982E689485F8C3CFD8
:101920009C3619F4689487F8BECF983609F4BBCF7B
:101930008BEB890F833008F041C0689484F8905E87
:1019400086FE16E0582D5F73852E953609F03EC051
:10195000689486F887FE44C0812F1C3308F08BE31F
:1019600022242394280E27E0F50161917191819141
:1019700091916F01022DAE014F5F5F4F0E94F311F5
:101980005C01498040FE03C00DE243FE09C00BE24A
:1019900081FC06C082FA002700F90295000F007E44
:1019A000F42DFC705F2EF115C1F101118DC224E000
:1019B000512C921608F49FC283E08BC28BE9890FE9
:1019C000833008F041C1E89484F8BACF963619F410
:1019D000689487F8BFCF111509F4BCCF1150BACF66
:1019E000212F183010F027E017E0212CBDCF8110F7
:1019F0008052B70190E00E94E1120F5F1F4FF80183
:101A000084918111F4CF511409F42FCFB70180E2F2
:101A100090E00E94E1125A94F6CF87FE32C0822DE8
:101A20008A0D44FE04C09A81913309F48150222426
:101A30002394181634F4282EF9E08F1710F088E05C
:101A4000282E87FE46C0C501B7FE02C080E090E0A8
:101A5000019601110196111531F0212F30E02F5F11
:101A60003F4F820F931F8915910514F4592C581A72
:101A7000882D8970811137C051102EC00115E1F1F8
:101A800034C086FCDECFE12FF0E01A151B043CF0D9
:101A90002CEFA2162FEFB20614F0689487F8329656
:101AA00041E050E04C0F5D1FE40FF51F01C01150E5
:101AB000111519F082918033D1F387FE0AC02224D8
:101AC0002394210EA116B10414F41A19BACF10E010
:101AD000B8CF85E090E0BDCFB70180E290E00E94F2
:101AE000E1125A94C9CF011529F0B701802F90E077
:101AF0000E94E11283FC02C051103EC087FE56C016
:101B00004501B7FE02C0812C912CC50188199909A5
:101B1000E1E0F0E0EC0FFD1FE80FF91FFD87EC8717
:101B20009501221931091901012F10E01195019534
:101B30001109A814B9043CF12814390424F5EC85E2
:101B4000FD858181F1E08F1A91082C853D852F5FFD
:101B50003F4F3D872C8780169106BCF0B70190E07F
:101B60000E94E1123FEF8316930619F7B7018EE248
:101B700090E00E94E112DDCFB70180E390E00E9487
:101B8000E1125A94B9CF80E3DDCFA814B90439F437
:101B90009A81963348F4953311F444FE05C0B70199
:101BA00090E00E94E1122FCF81E3F9CF8A81813347
:101BB00011F0E89444F8B70190E00E94E11211118D
:101BC00025C085E490E084FC02C085E690E0B70182
:101BD0000E94E112B7FC05C0A114B10471F544FEE6
:101BE0002CC0B194A194B1088DE2B70190E00E949D
:101BF000E11280E35AE0A516B1040CF5B70190E0BC
:101C00000E94E112B701C501C096CBCFB7018EE2A9
:101C100090E00E94E1121E5F02E0802F0F5FE1E082
:101C2000F0E0EC0FFD1FE80FF11D8081B70190E09F
:101C30000E94E1120113F1CFC4CF8BE2D6CF8F5FA8
:101C40004AE0A41AB108D6CF933609F482C093377C
:101C500009F495C0933509F4A1C0943619F099366A
:101C600009F0CEC0F50187FEC3C0619171918191E9
:101C700091916F01F82DFF768F2E97FF09C09095F7
:101C80008095709561957F4F8F4F9F4F689487F82F
:101C90002AE030E0AE014F5F5F4F5A010E944313CC
:101CA000B82EBA185B2C082D86FE0AC00E7FB1161E
:101CB00038F484FE04C082FC02C0082D0E7E512E32
:101CC00004FFD8C0FE01EB0DF11D8081803309F0C7
:101CD000CAC0097E03FD0EC000FFDBC01B2D5914D6
:101CE00018F4190D1519592C892D8519951408F416
:101CF00080E0580E591408F0CEC09518592C04FFF6
:101D0000CCC0B70180E390E00E94E11202FF09C05D
:101D100088E590E001FD02C088E790E0B7010E94ED
:101D2000E112B11608F4C6C0BA940B2D10E00F5F93
:101D30001F4FCE0101965C01080F191FF801829117
:101D40008F01B70190E00E94E112A016B106B1F731
:101D50005ACE650182E0C80ED11CF50180818983CD
:101D600001E010E09E012F5F3F4F5901E89487F892
:101D700083FC03C00915110510F1592C35C0F5017C
:101D8000A190B1906F01612F70E086FC02C06FEFEF
:101D90007FEFC5010E94D6128C01E8CFF501A1901A
:101DA000B1906F01612F70E086FC02C06FEF7FEF92
:101DB000C5010E94CB128C01689487F8D9CFB70176
:101DC00080E290E00E94E1129A94D4CFF50187FC62
:101DD000859187FE81915F01B70190E00E94E11239
:101DE00051105A94015011090115110579F70BCEC4
:101DF000619171916F01072E000C880B990B3ACFFE
:101E0000082D0F7E2AE030E0953709F054CDF5011A
:101E100007FF23C061917191819191916F01AE0192
:101E20004F5F5F4F5A010E944313B82EBA18802E9D
:101E3000E89487F837CF983709F04ACD04FD04605D
:101E400020E130E0E4CF0061F9CF84FC066020E1BE
:101E500032E0DDCF28E030E0DACF619171916F019F
:101E600080E090E0DCCF02FD02C0539433CF539466
:101E7000539430CF802F8678811509F42BCFF5CF7E
:101E8000B70180E290E00E94E112A394A914C0F38C
:101E90002BCFA52CFBCF512C32CF802F86788115EC
:101EA00009F43FCF80E201FD8BE207FD8DE2B7012F
:101EB00090E035CFB70180E390E00E94E11211502D
:101EC00030CF8FEF9FEF07CDF5E0512C9F1670F0CC
:101ED00084E0592C581A83FC07C0B70180E290E0D7
:101EE0000E94E1125A94C9F7011529F0B701802F19
:101EF00090E00E94E11208E610E043FC02C00CE60C
:101F000010E0282D2071822E7ACD2F923F924F9291
:101F10005F926F927F928F929F92AF92BF92CF9279
:101F2000DF92EF92FF920F931F93CF93DF93CDB782
:101F3000DEB7CA1BDB0B0FB6F894DEBF0FBECDBFFA
:101F400009942A88398848885F846E847D848C84CB
:101F50009B84AA84B984C884DF80EE80FD800C81D4
:101F60001B81AA81B981CE0FD11D0FB6F894DEBFB7
:101F70000FBECDBFED0108955058BB27AA270E9480
:101F8000D40F0C9447110E94391138F00E9440116F
:101F900020F039F49F3F19F426F40C9436110EF416
:101FA000E095E7FB0C943011E92F0E94581158F38B
:101FB000BA17620773078407950720F079F4A6F52E
:101FC0000C947A110EF4E0950B2EBA2FA02D0B0174
:101FD000B90190010C01CA01A0011124FF27591B6E
:101FE00099F0593F50F4503E68F11A16F040A22F74
:101FF000232F342F4427585FF3CF469537952795E5
:10200000A795F0405395C9F77EF41F16BA0B620BE3
:10201000730B840BBAF09150A1F0FF0FBB1F661F2A
:10202000771F881FC2F70EC0BA0F621F731F841F6D
:1020300048F4879577956795B795F7959E3F08F093
:10204000B0CF9395880F08F09927EE0F9795879555
:1020500008950E940C1108F481E008950E94421036
:102060000C9447110E94401158F00E94391140F021
:1020700029F45F3F29F00C94301151110C947B111D
:102080000C9436110E94581168F39923B1F355232B
:1020900091F3951B550BBB27AA276217730784077B
:1020A00038F09F5F5F4F220F331F441FAA1FA9F311
:1020B00035D00E2E3AF0E0E832D091505040E695FF
:1020C000001CCAF72BD0FE2F29D0660F771F881F60
:1020D000BB1F261737074807AB07B0E809F0BB0B53
:1020E000802DBF01FF2793585F4F3AF09E3F510567
:1020F00078F00C9430110C947B115F3FE4F3983E20
:10210000D4F3869577956795B795F7959F5FC9F74F
:10211000880F911D9695879597F90895E1E0660FD0
:10212000771F881FBB1F621773078407BA0720F049
:10213000621B730B840BBA0BEE1F88F7E0950895B2
:102140000E94601188F09F5798F0B92F9927B751D6
:10215000B0F0E1F0660F771F881F991F1AF0BA954B
:10216000C9F714C0B13091F00E947A11B1E008951E
:102170000C947A11672F782F8827B85F39F0B93F10
:10218000CCF3869577956795B395D9F73EF49095FE
:102190008095709561957F4F8F4F9F4F0895E8947C
:1021A00009C097FB3EF490958095709561957F4F9F
:1021B0008F4F9F4F9923A9F0F92F96E9BB2793954D
:1021C000F695879577956795B795F111F8CFFAF45D
:1021D000BB0F11F460FF1BC06F5F7F4F8F4F9F4F8E
:1021E00016C0882311F096E911C0772321F09EE8EC
:1021F000872F762F05C0662371F096E8862F70E052
:1022000060E02AF09A95660F771F881FDAF7880F2B
:102210009695879597F90895990F0008550FAA0B81
:10222000E0E8FEEF16161706E807F907C0F01216E9
:102230001306E407F50798F0621B730B840B950BEC
:1022400039F40A2661F0232B242B252B21F4089541
:102250000A2609F4A140A6958FEF811D811D0895DE
:1022600097F99F6780E870E060E008959FEF80EC49
:10227000089500240A9416161706180609060895EC
:1022800000240A9412161306140605060895092E52
:102290000394000C11F4882352F0BB0F40F4BF2BC1
:1022A00011F460FF04C06F5F7F4F8F4F9F4F089501
:1022B00057FD9058440F551F59F05F3F71F04795F7
:1022C000880F97FB991F61F09F3F79F087950895DC
:1022D000121613061406551FF2CF4695F1DF08C0FB
:1022E000161617061806991FF1CF86957105610518
:1022F00008940895E894BB2766277727CB0197F9C0
:1023000008950E940C1108F48FEF08950E9499110E
:102310000C9447110E94391138F00E94401120F0AE
:10232000952311F00C9430110C94361111240C9457
:102330007B110E94581170F3959FC1F3950F50E0E7
:10234000551F629FF001729FBB27F00DB11D639F67
:10235000AA27F00DB11DAA1F649F6627B00DA11D0D
:10236000661F829F2227B00DA11D621F739FB00DB3
:10237000A11D621F839FA00D611D221F749F332723
:10238000A00D611D231F849F600D211D822F762FBC
:102390006A2F11249F5750409AF0F1F088234AF099
:1023A000EE0FFF1FBB1F661F771F881F9150504005
:1023B000A9F79E3F510580F00C9430110C947B11CD
:1023C0005F3FE4F3983ED4F3869577956795B7958C
:1023D000F795E7959F5FC1F7FE2B880F911D9695A6
:1023E000879597F90895283008F027E03327DA0118
:1023F000990F311D87FD916000966105710539F4D3
:1024000032602E5F3D9330E32A95E1F708959F3FB8
:1024100030F080387105610509F03C5F3C5F3D9309
:10242000913008F08068911DDF93CF931F930F9335
:10243000FF92EF92192F987F9695E92F9695969592
:10244000E90FFF27E653FF4F99273327EE24FF2498
:10245000A701E70105900894079428F4360FE71EBA
:10246000F81E491F511D660F771F881F991F06947C
:10247000A1F70590079428F4E70EF81E491F561F90
:10248000C11D770F881F991F661F0694A1F705903D
:10249000079428F4F80E491F561FC71FD11D880F37
:1024A000991F661F771F0694A1F70590079420F4E3
:1024B000490F561FC71FD81F990F661F771F881F08
:1024C0000694A9F784911095177041F0D695C79599
:1024D00057954795F794E7941A95C1F7E0E7F0E030
:1024E00068941590159135916591959105907FE2CD
:1024F0007395E118F10A430B560BC90BD009C0F7CD
:10250000E10CF11E431F561FC91FD01D7EF470330E
:1025100011F48A95E6CFE894015030F0080F0AF4E0
:102520000027021708F4202F2395022F7A3328F072
:1025300079E37D932A95E9F710C07D932A9589F672
:10254000069497956795379517951794E118F10AB2
:10255000430B560BC90BD00998F023957E917395C8
:102560007A3308F070E37C932013B8F77E917061A2
:102570007D9330F0839571E37D9370E32A95E1F7C5
:102580001124EF90FF900F911F91CF91DF91992728
:1025900087FD90950895FC010590615070400110F1
:1025A000D8F7809590958E0F9F1F0895FC0161507C
:1025B000704001900110D8F7809590958E0F9F1F65
:1025C00008950F931F93CF93DF93182F092FEB01DB
:1025D0008B8181FD09C01FEF0FEF812F902FDF91BD
:1025E000CF911F910F91089582FF14C02E813F81DA
:1025F0008C819D81281739073CF4E881F981CF014E
:1026000001969983888310838E819F8101969F8391
:102610008E83E3CFE885F985812F0995892BA1F376
:10262000DACFAEE0B0E0E7E1F3E10C94930F0D896F
:102630001E8986E08C831A8309838F89988D813067
:1026400020E8920710F080E090E801979E838D8348
:10265000AE01455E5F4F698D7A8DCE0101960E9475
:102660000D0C4D815E8157FD0AC02F8138854217C0
:1026700053070CF49A01020F131FF80110822E96D3
:10268000E4E00C94AF0FFA01AA27283051F1203171
:1026900081F1E8946F936E7F6E5F7F4F8F4F9F4FF6
:1026A000AF4FB1E03ED0B4E03CD0670F781F891F38
:1026B0009A1FA11D680F791F8A1F911DA11D6A0F06
:1026C000711D811D911DA11D20D009F468943F91B9
:1026D0002AE0269F11243019305D3193DEF6CF01B8
:1026E0000895462F4770405D4193B3E00FD0C9F77E
:1026F000F6CF462F4F70405D4A3318F0495D31FDEB
:102700004052419302D0A9F7EACFB4E0A69597953D
:10271000879577956795BA95C9F700976105710513
:1027200008959B01AC010A2E06945795479537955D
:102730002795BA95C9F7620F731F841F951FA01DB7
:062740000895F894FFCF9C
:10274600017C0064743A20252E3365206D730000E9
:00000001FF
