:200000000C9434000C9449000C9449000C9449000C9449000C9449000C9449000C944900AD
:200020000C9449000C9449000C9449000C9449000C9449000C9449000C9449000C94490078
:200040000C9449000C9449000C9449000C9449000C9449000C9449000C9449000C94490058
:200060000C9449000C94490011241FBECFEFD8E0DEBFCDBF11E0A0E0B1E0E0E8FCE202C093
:2000800005900D92AC30B107D9F70E94380D0C943E160C940000CF93DF9300D00F92CDB784
:2000A000DEB78B831A82198249C08CEB90E024EAFC01208300008CEB90E0FC01808181154D
:2000C000D4F789EB90E0FC018081882F90E0887F99278830910559F089EB90E0FC0180810C
:2000E000882F90E0887F992780319105F9F48BEB90E02B81FC0120838CEB90E024E8FC01BC
:20010000208300008CEB90E0FC0180818115D4F789EB90E0FC018081882F90E0887F992726
:200120008831910529F480E090E016C0000001C0000089819A8101969A83898389819A81E2
:20014000883C91050CF4B1CF89EB90E0FC018081882F90E0887F99270F900F900F90DF91A8
:20016000CF910895CF93DF9300D00F92CDB7DEB78B831A82198224C08BEB90E02B81FC016C
:2001800020838CEB90E024E8FC01208300008CEB90E0FC0180818115D4F789EB90E0FC0102
:2001A0008081882F90E0887F99278832910519F480E090E012C089819A8101969A8389836C
:2001C00089819A81883C9105BCF289EB90E0FC018081882F90E0887F99270F900F900F9045
:2001E000DF91CF910895CF93DF9300D000D000D0CDB7DEB79E838D838D81282F20648CE7A8
:2002000090E0FC0120838AE790E027ECFC0120838BE790E0FC01108200008AE790E0FC01EB
:2002200080818295869586958370882F90E081709927009791F788E790E0FC018081882FF2
:2002400090E09A83898389E790E0FC018081882F90E09C838B838AE790E0FC0120818AE7E3
:2002600090E02064FC0120838B819C81382F222789819A81822B932B0F900F900F900F9005
:200280000F900F90DF91CF910895CF93DF9300D0CDB7DEB79A8389838AE290E0FC01208153
:2002A0008AE290E02860FC01208380EB90E023EAFC01208381EB90E021E0FC01208384EBC6
:2002C00090E02981FC01208300000F900F90DF91CF910895CF93DF9300D0CDB7DEB79A83DF
:2002E00089838AE290E0FC0120818AE290E02062FC01208384E490E023EAFC01208385E48C
:2003000090E021E0FC01208388E490E02981FC01208300000F900F90DF91CF910895CF9399
:20032000DF9300D0CDB7DEB79A8389838AE290E0FC0120818AE290E02064FC01208384E457
:2003400090E023EAFC01208385E490E021E0FC01208387E490E02981FC01208300000F9042
:200360000F90DF91CF910895CF93DF9300D0CDB7DEB79A83898384E290E0FC01208184E2B1
:2003800090E02260FC01208380E890E023EAFC01208381E890E029E0FC01208388E890E0E4
:2003A00029813A813370FC013183208300000F900F90DF91CF910895CF93DF9300D0CDB70E
:2003C000DEB79A83898384E290E0FC01208184E290E02260FC01208380E890E021EAFC0113
:2003E000208381E890E029E0FC01208388E890E029813A813327FC013183208300000F9046
:200400000F90DF91CF910895CF93DF9300D0CDB7DEB79A83898384E290E0FC01208184E210
:2004200090E02460FC01208380E890E023EAFC01208381E890E029E0FC0120838AE890E03F
:2004400029813A813370FC013183208300000F900F90DF91CF910895CF93DF9300D0CDB76D
:20046000DEB79A83898384E290E0FC01208184E290E02460FC01208380E890E021EAFC0170
:20048000208381E890E029E0FC0120838AE890E029813A813327FC013183208300000F90A3
:2004A0000F90DF91CF910895CF93DF9300D0CDB7DEB79A83898384E290E0FC01208184E270
:2004C00090E02860FC01208380EB90E023EAFC01208381EB90E021E0FC01208383EB90E0A1
:2004E0002981FC01208300000F900F90DF91CF910895CF93DF9300D000D000D0CDB7DEB7AA
:200500009D838C836E838E81881F8827881F882F90E0817099272C813D81F9012081222F80
:2005200030E002C0880F991F2A95E2F7482F8E818295869586958370882F90E08170992764
:200540002C813D81F9012181222F30E002C0880F991F2A95E2F7482B8E81829586958770DF
:20056000882F90E0817099272C813D81F9012281222F30E002C0880F991F2A95E2F7482B1E
:200580008E8182958F70882F90E0817099272C813D81F9012381222F30E002C0880F991FE3
:2005A0002A95E2F7482B8E81869586958695882F90E0817099272C813D81F9012481222F9D
:2005C00030E002C0880F991F2A95E2F7482B8E8186958695882F90E0817099272C813D8167
:2005E000F9012581222F30E002C0880F991F2A95E2F7482B8E818695882F90E081709927DC
:200600002C813D81F9012681222F30E002C0880F991F2A95E2F7482B8E81882F90E081702A
:2006200099272C813D81F9012781222F30E002C0880F991F2A95E2F7842B898389810E947C
:20064000B2000097C1F08C819D81FC018081282F30E081E090E002C0880F991F2A95E2F796
:20066000982F9095898189230E94B200009719F081E090E002C080E090E09B838A838A814B
:200680009B810F900F900F900F900F900F90DF91CF9108958F92AF92CF92EF920F93CF93CF
:2006A000DF93CDB7DEB760970FB6F894DEBF0FBECDBF2C833D834E835F83688779878A874F
:2006C0009B870C87ED86CE86AF86888A8C85882F90E0817099272E81222F30E002C0880F05
:2006E000991F2A95E2F7482F8D85882F90E0817099272F81222F30E002C0880F991F2A9568
:20070000E2F7482B8C81282F30E081E090E002C0880F991F2A95E2F7482B8D81282F30E0B7
:2007200081E090E002C0880F991F2A95E2F7482B8A8D882F90E0817099272B85222F30E0CC
:2007400002C0880F991F2A95E2F7482B8889882F90E0817099272A85222F30E002C0880F2B
:20076000991F2A95E2F7482B8F85882F90E0817099272985222F30E002C0880F991F2A95EB
:20078000E2F7482B8E85882F90E0817099272885222F30E002C0880F991F2A95E2F7842BBC
:2007A000898389810E94B200009791F48C81282F30E081E090E002C0880F991F2A95E2F7C5
:2007C000982F9095898189230E94B200009719F081E090E002C080E090E09B838A838A81EA
:2007E0009B8160960FB6F894DEBF0FBECDBFDF91CF910F91EF90CF90AF908F9008958F9236
:200800009F92AF92BF92CF92DF92EF92FF920F931F93CF93DF93CDB7DEB7CE56D1090FB62D
:20082000F894DEBF0FBECDBFFE01E15AFF4F8083CE01805A9F4FDC016C93CE018F599F4F93
:20084000FC014083CE018E599F4FDC012C93CE018D599F4FFC010083CE018C599F4FDC01F6
:20086000EC92CE018B599F4FFC01C082CE018A599F4FDC01AC92CE01815B9F4F9E01215AAC
:200880003F4FF9012081DC012C93CE01815B9F4F9E01205A3F4FF9012081DC0111962C9375
:2008A000CE01815B9F4F9E012F593F4FF9012081DC0112962C93CE01815B9F4F9E012E594C
:2008C0003F4FF9012081DC0113962C93CE01815B9F4F9E012D593F4FF9012081DC0114963C
:2008E0002C93CE01815B9F4F9E012C593F4FF9012081DC0115962C93CE01815B9F4F9E01D4
:200900002B593F4FF9012081DC0116962C93CE01815B9F4F9E012A593F4FF9012081DC0121
:2009200017962C9380E090E0A8ECB2E489AF9AAFABAFBCAF20E030E04AE755E469AD7AAD54
:200940008BAD9CAD0E94E912DC01CB019E01235C3F4FF90180839183A283B38320E030E0A8
:2009600040E85FE3CE01CD96DC016D917D918D919C910E94C91181154CF4CE018F5B9F4FAE
:2009800021E030E0FC013183208369C020E03FEF4FE757E4CE01CD96DC016D917D918D91F1
:2009A0009C910E94E41281300CF448C020E030E040E251E469AD7AAD8BAD9CAD0E94E912F7
:2009C000DC01CB018E010F5B1F4FBC01CD010E944012DC01CB01F8019183808326C0CE011A
:2009E0008D5B9F4F20E931E0DC012D933C93CE018D5B9F4FFC01808191810197F1F79E01C7
:200A00002D5B3F4FD9018D939C930000CE018F5B9F4F9E012F5B3F4FF9012081318121507B
:200A20003109DC0111963C932E93CE018F5B9F4FFC0180819181009791F62CC08E010F5BAE
:200A40001F4FCE01CD96DC016D917D918D919C910E944012DC01CB01F80191838083CE0146
:200A60008B5B9F4F9E012F5B3F4FD9012D913C91FC0131832083CE018B5B9F4FDC018D9194
:200A80009C910197F1F79E012B5B3F4FF901918380830000FE01E15BFF4F81E08F9388242D
:200AA0008394A12CC12CE12C00E0208131814281538164817581868197810E944A030F9006
:200AC00080E090E0A0EAB0E48BA79CA7ADA7BEA720E030E04AE755E46BA57CA58DA59EA5DA
:200AE0000E94E912DC01CB018FA798ABA9ABBAAB20E030E040E85FE36FA578A989A99AA95A
:200B00000E94C91181152CF481E090E09CAB8BAB40C020E03FEF4FE757E46FA578A989A94F
:200B20009AA90E94E412813054F120E030E040E251E46BA57CA58DA59EA50E94E912DC015D
:200B4000CB01BC01CD010E944012DC01CB019CAB8BAB10C080E991E09EAB8DAB8DA99EA97C
:200B60000197F1F79EAB8DAB00008BA99CA901979CAB8BAB8BA99CA9009761F715C06FA595
:200B800078A989A99AA90E944012DC01CB019CAB8BAB8BA99CA998AF8FAB8FA998AD019796
:200BA000F1F798AF8FAB0000FE01E15BFF4F81E08F9388248394A12CC12CE12C00E02081B5
:200BC00031814281538164817581868197810E944A030F9080E090E0A0EAB0E48D8F9E8F0D
:200BE000AF8FB8A320E030E04AE755E46D8D7E8D8F8D98A10E94E912DC01CB0189A39AA3D9
:200C0000ABA3BCA320E030E040E85FE369A17AA18BA19CA10E94C91181152CF481E090E01C
:200C20009EA38DA340C020E03FEF4FE757E469A17AA18BA19CA10E94E412813054F120E088
:200C400030E040E251E46D8D7E8D8F8D98A10E94E912DC01CB01BC01CD010E944012DC0131
:200C6000CB019EA38DA310C080E991E098A78FA38FA198A50197F1F798A78FA300008DA190
:200C80009EA101979EA38DA38DA19EA1009761F715C069A17AA18BA19CA10E944012DC017C
:200CA000CB019EA38DA38DA19EA19AA789A789A59AA50197F1F79AA789A70000FE01E15B80
:200CC000FF4F81E08F9388248394A12CC12CE12C00E020813181428153816481758186810D
:200CE00097810E944A030F9080E090E0A0EAB0E48F87988BA98BBA8B20E030E04AE755E434
:200D00006F85788989899A890E94E912DC01CB018B8B9C8BAD8BBE8B20E030E040E85FE32B
:200D20006B897C898D899E890E94C91181152CF481E090E0988F8F8B40C020E03FEF4FE7D5
:200D400057E46B897C898D899E890E94E412813054F120E030E040E251E46F857889898926
:200D60009A890E94E912DC01CB01BC01CD010E944012DC01CB01988F8F8B10C080E991E0F7
:200D80009A8F898F898D9A8D0197F1F79A8F898F00008F89988D0197988F8F8B8F89988DC1
:200DA000009761F715C06B897C898D899E890E944012DC01CB01988F8F8B8F89988D9C8FF3
:200DC0008B8F8B8D9C8D0197F1F79C8F8B8F0000FE01E15BFF4F1F9288248394A12CC12C3C
:200DE000E12C00E0208131814281538164817581868197810E944A030F9080E090E0A0EA3A
:200E0000B0E489839A83AB83BC8320E030E04AE755E469817A818B819C810E94E912DC01A6
:200E2000CB018D839E83AF83B88720E030E040E85FE36D817E818F8198850E94C91181159E
:200E40002CF481E090E09A87898740C020E03FEF4FE757E46D817E818F8198850E94E4121F
:200E6000813054F120E030E040E251E469817A818B819C810E94E912DC01CB01BC01CD0136
:200E80000E944012DC01CB019A87898710C080E991E09C878B878B859C850197F1F79C87D1
:200EA0008B87000089859A8501979A87898789859A85009761F715C06D817E818F8198851F
:200EC0000E944012DC01CB019A87898789859A859E878D878D859E850197F1F79E878D87F0
:200EE0000000FE01E15BFF4F1F9288248394A12CC12CE12C00E0208131814281538164817F
:200F00007581868197810E944A030F90FE01E15BFF4F1F92812CA12CCC24C394E12C00E046
:200F2000208131814281538164817581868197810E944A030F90FE01E15BFF4F1F92812C58
:200F4000A12CC12CE12C00E0208131814281538164817581868197810E944A030F90FE0179
:200F6000E15BFF4F1F9288248394AA24A394C12CE12C00E0208131814281538164817581CF
:200F8000868197810E944A030F90FE01E15BFF4F1F92812CA12CC12CE12C00E020813181C3
:200FA0004281538164817581868197810E944A030F90FE01E15BFF4F81E08F938824839443
:200FC000AA24A394CC24C394E12C00E0208131814281538164817581868197810E944A0305
:200FE0000F90CE01895B9F4F9E01215B3F4F48E0F901DC0101900D924A95E1F7CE01895B6F
:201000009F4FF0E0DC01FC91E0E0DC011196EC9170E0DC0112967C9160E0DC0113966C9142
:2010200050E0DC0114965C9140E0DC0115964C9130E0DC0116963C9120E0DC0117962C91DA
:201040001797A896FFAFA897A996EFAFA997AA967FAFAA97AB966FAFAB97AC965FAFAC97B7
:20106000AD964FAFAD97AE963FAFAE97AF962FAFAF97A8968FACA897A9969FACA997AA9649
:20108000AFACAA97AB96BFACAB97AC96CFACAC97AD96DFACAD97AE96EFACAE97AF96FFACA0
:2010A000AF97282D392D4A2D5B2D6C2D7D2D8E2D9F2DC259DF4F0FB6F894DEBF0FBECDBFD6
:2010C000DF91CF911F910F91FF90EF90DF90CF90BF90AF909F908F9008958F92AF92CF92D8
:2010E000EF920F93CF93DF93CDB7DEB7AB970FB6F894DEBF0FBECDBF2BA33CA34DA35EA3B9
:201100006FA378A789A79AA70BA78BA582958F7081709BA5929596959770392F31709BA562
:201120009295969596959370292F21709BA5991F9927991F8F93832EA22EC92EE12C01E04E
:201140002BA13CA14DA15EA16FA178A589A59AA50E944A030F909A83898389819A810097EC
:2011600019F58BA581709BA59695392F31709BA596959695292F21709BA59695969596958C
:2011800091708F93832EA22EC92EE12C01E02BA13CA14DA15EA16FA178A589A59AA50E94F4
:2011A0004A030F90009719F081E090E002C080E090E09A83898380E090E0A8E4B2E48B8317
:2011C0009C83AD83BE832BEA3AEA4AEA50E46B817C818D819E810E94E912DC01CB018F8370
:2011E0009887A987BA8720E030E040E850E46B817C818D819E810E94E912DC01CB018B8785
:201200009C87AD87BE8720E030E040E85FE36F81788589859A850E94C91181151CF481E01B
:201220008F87B5C020E03FEF4FE757E46B857C858D859E850E94E41281300CF47DC020E0D8
:2012400030E04AE754E46B817C818D819E810E94CE11DC01CB01888B998BAA8BBB8B20E023
:2012600030E04AE755E4688979898A899B890E94E912DC01CB018C8B9D8BAE8BBF8B20E0C2
:2012800030E040E85FE36C897D898E899F890E94C91181152CF481E090E0998F888F40C058
:2012A00020E03FEF4FE757E46C897D898E899F890E94E412813054F120E030E040E251E460
:2012C000688979898A899B890E94E912DC01CB01BC01CD010E944012DC01CB01998F888F37
:2012E00010C080E991E09B8F8A8F8A8D9B8D0197F1F79B8F8A8F0000888D998D0197998F04
:20130000888F888D998D009761F715C06C897D898E899F890E944012DC01CB01998F888FA1
:20132000888D998D9D8F8C8F8C8D9D8D0197F1F79D8F8C8F000032C020E030E04FE753E4B2
:201340006F81788589859A850E94E4128130B4F06B857C858D859E850E944012DC01CB01C3
:201360009F8F8E8F8E8D9F8D99A388A388A199A10197F1F799A388A3000010C06F8178856D
:2013800089859A850E944012DC01CB018F878F858AA38AA18A95F1F78AA3000089819A81A8
:2013A000AB960FB6F894DEBF0FBECDBFDF91CF910F91EF90CF90AF908F900895EF92FF924A
:2013C0000F931F93CF93DF93CDB7DEB760970FB6F894DEBF0FBECDBF2D833E834F8358876C
:2013E00069877A878B879C871E870D87F88AEF861A8219821C821B8225C089819A81009784
:20140000A9F42D853E858B819C81820F931FFC018081082F2D813E814F81588569857A8512
:201420008B859C850E946D08009719F081E090E002C080E090E09A8389838B819C81019678
:201440009C838B832B813C818F85988928173907A0F289819A8160960FB6F894DEBF0FBEDA
:20146000CDBFDF91CF911F910F91FF90EF9008958F92AF92CF92EF920F931F93CF93DF93A9
:20148000CDB7DEB72E970FB6F894DEBF0FBECDBF2D833E834F83588769877A878B879C87DF
:2014A0001E870D871A8219821C821B8243C089819A810097A1F481E08F93812CA12CC12C43
:2014C000E12C00E02D813E814F81588569857A858B859C850E944A030F90009719F081E058
:2014E00090E002C080E090E09A83898389819A810097A1F41F92812CAA24A394C12CE12C13
:2015000000E02D813E814F81588569857A858B859C850E944A030F90009719F081E090E0B4
:2015200002C080E090E09A8389838B819C8101969C838B832B813C818D859E8528173907E6
:2015400008F4B5CF89819A812E960FB6F894DEBF0FBECDBFDF91CF911F910F91EF90CF90DD
:20156000AF908F9008958F92AF92CF92EF920F931F93CF93DF93CDB7DEB72E970FB6F894D5
:20158000DEBF0FBECDBF2D833E834F83588769877A878B879C871E870D871A8219821C82FF
:2015A0001B8242C089819A810097A1F481E08F93812CA12CC12CE12C00E02D813E814F8127
:2015C000588569857A858B859C850E944A030F90009719F081E090E002C080E090E09A8362
:2015E000898389819A81009799F41F92812CA12CC12CE12C00E02D813E814F815885698589
:201600007A858B859C850E944A030F90009719F081E090E002C080E090E09A8389838B81D4
:201620009C8101969C838B832B813C818D859E852817390708F4B6CF89819A812E960FB67D
:20164000F894DEBF0FBECDBFDF91CF911F910F91EF90CF90AF908F9008958F92AF92CF924C
:20166000EF920F931F93CF93DF93CDB7DEB72E970FB6F894DEBF0FBECDBF2D833E834F8359
:20168000588769877A878B879C871E870D871A8219821C821B8244C089819A810097A1F445
:2016A00081E08F93812CA12CC12CE12C00E02D813E814F81588569857A858B859C850E9479
:2016C0004A030F90009719F081E090E002C080E090E09A83898389819A810097A9F41F92E8
:2016E000812CAA24A394CC24C394E12C00E02D813E814F81588569857A858B859C850E942A
:201700004A030F90009719F081E090E002C080E090E09A8389838B819C8101969C838B83C4
:201720002B813C818D859E852817390708F4B4CF89819A812E960FB6F894DEBF0FBECDBFDD
:20174000DF91CF911F910F91EF90CF90AF908F9008958F92AF92CF92EF920F931F93CF9396
:20176000DF93CDB7DEB72E970FB6F894DEBF0FBECDBF2D833E834F83588769877A878B87AD
:201780009C871E870D871A8219821C821B8243C089819A810097A1F481E08F93812CA12C2A
:2017A000C12CE12C00E02D813E814F81588569857A858B859C850E944A030F90009719F0E9
:2017C00081E090E002C080E090E09A83898389819A810097A1F41F92812CA12CCC24C394BA
:2017E000E12C00E02D813E814F81588569857A858B859C850E944A030F90009719F081E035
:2018000090E002C080E090E09A8389838B819C8101969C838B832B813C818D859E852817D3
:20182000390708F4B5CF89819A812E960FB6F894DEBF0FBECDBFDF91CF911F910F91EF9019
:20184000CF90AF908F9008958F92AF92CF92EF920F93CF93DF93CDB7DEB72A970FB6F89449
:20186000DEBF0FBECDBF2B833C834D835E836F83788789879A871F92812CA12CCC24C394C0
:20188000E12C00E02B813C814D815E816F81788589859A850E944A030F909A83898389816A
:2018A0009A81009799F41F92812CA12CC12CE12C00E02B813C814D815E816F8178858985D3
:2018C0009A850E944A030F90009719F081E090E002C080E090E09A83898389819A812A964A
:2018E0000FB6F894DEBF0FBECDBFDF91CF910F91EF90CF90AF908F9008958F92AF92CF9295
:20190000EF920F93CF93DF93CDB7DEB72A970FB6F894DEBF0FBECDBF2B833C834D835E8391
:201920006F83788789879A871F92812CAA24A394CC24C394E12C00E02B813C814D815E81D8
:201940006F81788589859A850E944A030F909A83898389819A81009799F41F92812CA12C42
:20196000C12CE12C00E02B813C814D815E816F81788589859A850E944A030F90009719F02F
:2019800081E090E002C080E090E09A83898389819A812A960FB6F894DEBF0FBECDBFDF911F
:2019A000CF910F91EF90CF90AF908F900895CF93DF9300D000D0CDB7DEB79C838B838B8188
:2019C0009C81877099279A83898389819A8181709927009751F08BE290E0FC0120818BE274
:2019E00090E02460FC01208309C08BE290E0FC0120818BE290E02B7FFC01208389819A81C3
:201A000082709927009751F08BE290E0FC0120818BE290E02860FC01208309C08BE290E016
:201A2000FC0120818BE290E0277FFC01208389819A8184709927009751F08BE290E0FC015A
:201A400020818BE290E02061FC01208309C08BE290E0FC0120818BE290E02F7EFC01208379
:201A600000000F900F900F900F90DF91CF9108958F929F92AF92BF92CF92DF92EF92FF92B5
:201A80000F931F93CF93DF93CDB7DEB7C055D1400FB6F894DEBF0FBECDBF1C8A1B8A8AE2E1
:201AA00090E0FC0120818AE290E02B7FFC0120838EE48D8B80E090E00E94D70C80E090E043
:201AC000A8ECB2E48BAF9CAFADAFBEAF8E01015C1F4F20E030E04AE755E46BAD7CAD8DAD3F
:201AE0009EAD0E94E912DC01CB01F80180839183A283B383CE01CF9620E030E040E85FE33C
:201B0000FC0160817181828193810E94C91181154CF4CE018D5B9F4F21E030E0FC01318325
:201B2000208368C0CE01CF9620E03FEF4FE757E4FC0160817181828193810E94E4128130D7
:201B40000CF447C020E030E040E251E46BAD7CAD8DAD9EAD0E94E912DC01CB018E010D5B14
:201B60001F4FBC01CD010E944012DC01CB01F8019183808325C0CE018B5B9F4F20E931E01D
:201B8000FC0131832083CE018B5B9F4FFC01808191810197F1F79E012B5B3F4FF9019183FD
:201BA00080830000CE018D5B9F4F9E012D5B3F4FF9012081318121503109FC01318320837C
:201BC000CE018D5B9F4FFC0180819181009799F62CC08E010D5B1F4FCE01CF96FC016081C7
:201BE0007181828193810E944012DC01CB01F80191838083CE01895B9F4F9E012D5B3F4FD9
:201C0000F90120813181FC0131832083CE01895B9F4FFC01808191810197F1F79E01295BCF
:201C20003F4FF9019183808300008D890E944B009F8B8E8B6894AA24A2F80F2EF5E0CF2E4C
:201C4000F02D0F2EF6E0EF2EF02D07E021E040E063E082E00E94FF03822E932EA42EB52EA3
:201C6000C62ED72EE82EF92E082D192D2A2D3B2D4C2D5D2D6E2D7F2DCE01875B9F4FFC010E
:201C80000083FC011183FC012283FC013383FC014483FC015583FC016683FC017783FE0166
:201CA000E75BFF4F1F92812CA12CC12CE12C00E020813181428153816481758186819781AB
:201CC0000E944A030F90FE01E75BFF4F81E08F93812CA12CC12CE12C00E0208131814281FA
:201CE000538164817581868197810E944A030F9080E090E0A0EAB0E48DA79EA7AFA7B8AB68
:201D000020E030E04AE755E46DA57EA58FA598A90E94E912DC01CB0189AB9AABABABBCAB23
:201D200020E030E040E85FE369A97AA98BA99CA90E94C91181152CF481E090E09EAB8DABF7
:201D400040C020E03FEF4FE757E469A97AA98BA99CA90E94E412813054F120E030E040E276
:201D600051E46DA57EA58FA598A90E94E912DC01CB01BC01CD010E944012DC01CB019EABCD
:201D80008DAB10C080E991E098AF8FAB8FA998AD0197F1F798AF8FAB00008DA99EA901974D
:201DA0009EAB8DAB8DA99EA9009761F715C069A97AA98BA99CA90E944012DC01CB019EABCD
:201DC0008DAB8DA99EA99AAF89AF89AD9AAD0197F1F79AAF89AF000019821A821B821C82DD
:201DE0008FE892ECA5EFBCE3888F998FAA8FBB8F1D821E821F82188680E090E0AAEAB2E481
:201E000089879A87AB87BC8780E090E0AAE2B3E48D879E87AF87B88B20E030E040E251E410
:201E2000688D798D8A8D9B8D0E94E912DC01CB018C8F9D8FAE8FBF8F20E030E040E251E4E9
:201E4000688D798D8A8D9B8D0E94E912DC01CB0188A399A3AAA3BBA320E030E040E251E489
:201E6000688D798D8A8D9B8D0E94E912DC01CB018CA39DA3AEA3BFA3CE018F5A9F4F20E317
:201E800030E0FC01318320832EEF0296FC01322F11923A95E9F789E290E0FC018081869585
:201EA0008695882F90E08170992721E0009709F020E0822F90E099A788A7FE01E75BFF4F7F
:201EC000208131814281538164817581868197810E94240C80910C01082E000C990B292FF0
:201EE0002F938F9380E091E0892F8F9380E091E08F931F928FEF8F93CE018F5A9F4F292F11
:201F00002F938F930E9456132DB73EB7285F3F4F0FB6F894DEBF0FBECDBF9BA78AA72AA55B
:201F20003BA5CE018F5A9F4FFE01E75BFF4F79018C012081318142815381648175818681B9
:201F400097810E94DE09FE01E75BFF4F208131814281538164817581868197810E947D0C42
:201F600088E091E0892F8F9388E091E08F931F928FEF8F93CE018F5A9F4F292F2F938F9380
:201F80000E9456130F900F900F900F900F900F909BA78AA72AA53BA5CE018F5A9F4FFE01B5
:201FA000E75BFF4F79018C01208131814281538164817581868197810E94DE0980910C01FF
:201FC0008CA788E090E09A8B898B1FC08CA5082E000C990B098802C0959587950A94E2F7B7
:201FE00081709927009711F081E301C080E3FE01E75BFF4F082F208131814281538164817B
:202000007581868197810E946D0889899A899C01215031093A8B298B0097C1F6FE01E75B0F
:20202000FF4F208131814281538164817581868197810E94240CFE01E75BFF4F0FE010E02E
:20204000208131814281538164817581868197810E94380A88A599A581709927009711F400
:2020600081E301C080E3FE01E75BFF4F082F208131814281538164817581868197810E948C
:202080006D086D817E818F8198850E944012DC01CB010E94DC0169857A858B859C850E94D5
:2020A0004012DC01CB010E942C026D857E858F8598890E944012DC01CB010E9454026D81A8
:2020C0007E818F8198850E944012DC01CB010E94450169857A858B859C850E944012DC0160
:2020E000CB010E946A016D857E858F8598890E944012DC01CB010E948F012C8D3D8D4E8DB0
:202100005F8D6D817E818F8198850E945D11DC01CB018D839E83AF83B88728A139A14AA1D0
:202120005BA169857A858B859C850E945D11DC01CB0189879A87AB87BC872CA13DA14EA18C
:202140005FA16D857E858F8598890E945D11DC01CB018D879E87AF87B88B20E030E0A90130
:202160006D817E818F8198850E94C911813064F020E030E040E853E46D817E818F8198853B
:202180000E94E412811524F01D821E821F82188620E030E0A90169857A858B859C850E9405
:2021A000C911813064F020E030E040E853E469857A858B859C850E94E412811524F01986D2
:2021C0001A861B861C8620E030E0A9016D857E858F8598890E94C911813064F020E030E0A7
:2021E00040E853E46D857E858F8598890E94E412811524F01D861E861F86188AFE01E75B45
:20220000FF4F208131814281538164817581868197810E947D0CFE01E75BFF4F0FE010E0F3
:20222000208131814281538164817581868197810E94380A69817A818B819C810E944012D4
:20224000DC01CB01FE01E75BFF4F082F208131814281538164817581868197810E946D0814
:20226000288D398D4A8D5B8D69817A818B819C810E945D11DC01CB0189839A83AB83BC83C7
:2022800020E030E0A90169817A818B819C810E94C911813064F020E030E040E853E469819C
:2022A0007A818B819C810E94E412811524F019821A821B821C82EFCD5058BB27AA270E948D
:2022C00074110C94AA120E949C1238F00E94A31220F039F49F3F19F426F40C9499120EF4BF
:2022E000E095E7FB0C949312E92F0E94BB1258F3BA17620773078407950720F079F4A6F57D
:202300000C94DD120EF4E0950B2EBA2FA02D0B01B90190010C01CA01A0011124FF27591B29
:2023200099F0593F50F4503E68F11A16F040A22F232F342F4427585FF3CF46953795279524
:20234000A795F0405395C9F77EF41F16BA0B620B730B840BBAF09150A1F0FF0FBB1F661FFA
:20236000771F881FC2F70EC0BA0F621F731F841F48F4879577956795B795F7959E3F08F00D
:20238000B0CF9395880F08F09927EE0F9795879508950E946F1208F481E008950E94E211B3
:2023A0000C94AA120E94A31258F00E949C1240F029F45F3F29F00C94931251110C94DE1297
:2023C0000C9499120E94BB1268F39923B1F3552391F3951B550BBB27AA276217730784074B
:2023E00038F09F5F5F4F220F331F441FAA1FA9F335D00E2E3AF0E0E832D091505040E6959D
:20240000001CCAF72BD0FE2F29D0660F771F881FBB1F261737074807AB07B0E809F0BB0B5F
:20242000802DBF01FF2793585F4F3AF09E3F510578F00C9493120C94DE125F3FE4F3983E8B
:20244000D4F3869577956795B795F7959F5FC9F7880F911D9695879597F90895E1E0660F0D
:20246000771F881FBB1F621773078407BA0720F0621B730B840BBA0BEE1F88F7E095089509
:202480000E94C31288F09F5798F0B92F9927B751B0F0E1F0660F771F881F991F1AF0BA95EB
:2024A000C9F714C0B13091F00E94DD12B1E008950C94DD12672F782F8827B85F39F0B93FB4
:2024C000CCF3869577956795B395D9F73EF490958095709561957F4F8F4F9F4F0895990FBC
:2024E0000008550FAA0BE0E8FEEF16161706E807F907C0F012161306E407F50798F0621BF1
:20250000730B840B950B39F40A2661F0232B242B252B21F408950A2609F4A140A6958FEFFA
:20252000811D811D089597F99F6780E870E060E008959FEF80EC089500240A9416161706F5
:2025400018060906089500240A9412161306140605060895092E0394000C11F4882352F020
:20256000BB0F40F4BF2B11F460FF04C06F5F7F4F8F4F9F4F089557FD9058440F551F59F0FA
:202580005F3F71F04795880F97FB991F61F09F3F79F087950895121613061406551FF2CF9E
:2025A0004695F1DF08C0161617061806991FF1CF86957105610508940895E894BB276627AE
:2025C0007727CB0197F908950E946F1208F48FEF08950E94FC120C94AA120E949C1238F0A6
:2025E0000E94A31220F0952311F00C9493120C94991211240C94DE120E94BB1270F3959F60
:20260000C1F3950F50E0551F629FF001729FBB27F00DB11D639FAA27F00DB11DAA1F649FA4
:202620006627B00DA11D661F829F2227B00DA11D621F739FB00DA11D621F839FA00D611D4C
:20264000221F749F3327A00D611D231F849F600D211D822F762F6A2F11249F5750409AF05D
:20266000F1F088234AF0EE0FFF1FBB1F661F771F881F91505040A9F79E3F510580F00C9489
:2026800093120C94DE125F3FE4F3983ED4F3869577956795B795F795E7959F5FC1F7FE2B9D
:2026A000880F911D9695879597F90895AEE0B0E0ECE5F3E10C9415160D891E8986E08C8321
:2026C0001A8309838F89988D813020E8920710F080E090E801979E838D83AE01455E5F4FA1
:2026E000698D7A8DCE0101960E9488134D815E8157FD0AC02F813885421753070CF49A01B4
:20270000020F131FF80110822E96E4E00C943116ABE0B0E0EEE8F3E10C940A166C017B010E
:202720008A01FC0117821682838181FFC9C19AE0592EF6012381F70123FD859123FF8191D4
:202740007F01811509F459C1853239F423FD959123FF91917F01953229F4B60190E00E94B1
:202760007915E7CF912C612C712CF0E27F1640F59B32D9F058F49032D1F09332F1F09E32B7
:2027800099F576FC3AC1689476F806C09D3291F09033C1F4689470F8F70123FD959123FF82
:2027A00091917F019111E1CF26C0689471F8689472F8F2CF689473F8EFCF689474F8ECCF6B
:2027C00077FC19C080ED890F8A30C8F676FE05C0959C800D1124982EDFCF659C800D1124CD
:2027E000682E689475F8D8CF9C3619F4689477F8D3CF983689F2892F8F7D8554833008F4B2
:2028000088C0933609F4A4C0933709F4A7C0933509F4B3C0943619F0993609F0DDC0F801AF
:2028200077FED3C061917191819191918F01272D2F76822E97FF09C090958095709561959B
:202840007F4F8F4F9F4F689487F82AE030E0AE014F5F5F4F5A010E94A9158A19A82EBA2C24
:20286000782C86FE0CC0E89470F8A91440F484FE05C082FC03C0F82DFE7E7F2EB92C74FE62
:20288000F8C0FE01EA0DF11D8081803309F0EAC0272D297E722E73FC0EC070FEF9C09A2C60
:2028A000B61418F4960C9B18B62C862D8B196B1408F480E0B80EB61408F0ECC06B1874FEB0
:2028C000EBC0B60180E390E00E94791572FE09C088E590E071FC02C088E790E0B6010E9416
:2028E0007915A91408F4E5C0AA94B12C4FEFA41AB40ACE0101964C01A80EB91EF5018291CE
:202900005F01B60190E00E9479158A149B04B1F715C00C5F1F4F8FE3898388248394912C6F
:20292000AE014F5F5F4F5A01E89477F873FC03C08614910498F181149104B9F5611409F412
:20294000F8CEB60180E290E00E9479156A94F6CFF801808189830E5F1F4FDFCFF801A1907C
:20296000B1908F01692D70E076FC02C06FEF7FEFC5010E946E154C01D7CFF801A190B19057
:202980008F01692D70E076FC02C06FEF7FEFC5010E9463154C01689477F8C8CFB60180E279
:2029A00090E00E9479156A94C3CFF50177FC859177FE81915F01B60190E00E9479156110B9
:2029C0006A94F1E08F1A9108B6CF61917191072E000C880B990B2ACF872CE89484F82AE047
:2029E00030E0953739F1572D597F852E9037A9F058F49835A9F09F36D9F0F60186819781FC
:202A00002B96EFE00C9426169837B9F784FE02C0689482F820E130E00DC0689484F8F6CFF6
:202A200074FE03C0852F8660882E20E132E002C028E030E0F80187FE10C0619171918191D0
:202A400091918F01FE0131965F01AF010E94A9158A19A82EE89487F802CF6191719180E0F5
:202A600090E0EFCF72FC02C0B39415CFB394B39412CF872D8678811509F40DCFF5CFB601C2
:202A800080E290E00E94791583948614C0F30DCF8B2CFBCF612C13CF872D8678811509F4BF
:202AA00020CF80E271FC8BE277FC8DE2B60190E016CFB60180E390E00E9479159A9411CF35
:202AC0008FEF9FEF9DCFFC010590615070400110D8F7809590958E0F9F1F0895FC016150CB
:202AE000704001900110D8F7809590958E0F9F1F08950F931F93CF93DF93182F092FEB01F0
:202B00008B8181FD09C01FEF0FEF812F902FDF91CF911F910F91089582FF14C02E813F8166
:202B20008C819D81281739073CF4E881F981CF0101969983888310838E819F8101969F83CF
:202B40008E83E3CFE885F985812F0995892BA1F3DACFFA01AA27283051F1203181F1E894E3
:202B60006F936E7F6E5F7F4F8F4F9F4FAF4FB1E03ED0B4E03CD0670F781F891F9A1FA11D96
:202B8000680F791F8A1F911DA11D6A0F711D811D911DA11D20D009F468943F912AE0269F78
:202BA00011243019305D3193DEF6CF010895462F4770405D4193B3E00FD0C9F7F6CF462FFC
:202BC0004F70405D4A3318F0495D31FD4052419302D0A9F7EACFB4E0A6959795879577958C
:202BE0006795BA95C9F700976105710508959B01AC010A2E06945795479537952795BA9500
:202C0000C9F7620F731F841F951FA01D08952F923F924F925F926F927F928F929F92AF9237
:202C2000BF92CF92DF92EF92FF920F931F93CF93DF93CDB7DEB7CA1BDB0B0FB6F894DEBF65
:202C40000FBECDBF09942A88398848885F846E847D848C849B84AA84B984C884DF80EE80B2
:202C6000FD800C811B81AA81B981CE0FD11D0FB6F894DEBF0FBECDBFED010895F894FFCF52
:202C800048533A253033780048533A003A306200C884DF80EE80FD800C811B81AA81B9819A
:202CA000CE0FD11D0FB6F894DEBF0FBECDBFED010895F894FFCF44533A307825780044457E
:202CC0003A307825780020E030E0A90169857A858B859C850E946417813064F020E030E06B
:202CE00040E853E469857A858B859C850E947F18811524F019861A861B861C8620E030E0E2
:202D0000A9016D857E858F8598890E946417813064F020E030E040E853E46D857E858F8545
:202D200098890E947F18811524F01D861E861F86188AFE01E65BFF4F208131814281538189
:202D400064817581868197810E94180CFE01E65BFF4F0FE010E02081318142815381648177
:202D60007581868197810E94D30969817A818B819C810E94DB17DC01CB01FE01E65BFF4FE7
:202D8000082F208131814281538164817581868197810E946208288D398D4A8D5B8D6981E8
:202DA0007A818B819C810E94F816DC01CB0189839A83AB83BC8320E030E0A90169817A8161
:202DC0008B819C810E946417813064F020E030E040E853E469817A818B819C810E947F18F2
:202DE000811524F019821A821B821C8206CE5058BB27AA270E940F170C9445180E943718D2
:202E000038F00E943E1820F039F49F3F19F426F40C9434180EF4E095E7FB0C942E18E92F0D
:202E20000E94561858F3BA17620773078407950720F079F4A6F50C9478180EF4E0950B2E64
:202E4000BA2FA02D0B01B90190010C01CA01A0011124FF27591B99F0593F50F4503E68F1D1
:202E60001A16F040A22F232F342F4427585FF3CF469537952795A795F0405395C9F77EF49F
:202E80001F16BA0B620B730B840BBAF09150A1F0FF0FBB1F661F771F881FC2F70EC0BA0FA8
:202EA000621F731F841F48F4879577956795B795F7959E3F08F0B0CF9395880F08F0992759
:202EC000EE0F9795879508950E940A1808F481E008950E947D170C9445180E943E1858F0DF
:202EE0000E94371840F029F45F3F29F00C942E1851110C9479180C9434180E94561868F30D
:202F00009923B1F3552391F3951B550BBB27AA2762177307840738F09F5F5F4F220F331FBD
:202F2000441FAA1FA9F335D00E2E3AF0E0E832D091505040E695001CCAF72BD0FE2F29D0AA
:202F4000660F771F881FBB1F261737074807AB07B0E809F0BB0B802DBF01FF2793585F4FE6
:202F60003AF09E3F510578F00C942E180C9479185F3FE4F3983ED4F3869577956795B795F4
:202F8000F7959F5FC9F7880F911D9695879597F90895E1E0660F771F881FBB1F62177307EE
:202FA0008407BA0720F0621B730B840BBA0BEE1F88F7E09508950E945E1888F09F5798F0BA
:202FC000B92F9927B751B0F0E1F0660F771F881F991F1AF0BA95C9F714C0B13091F00E9475
:202FE0007818B1E008950C947818672F782F8827B85F39F0B93FCCF3869577956795B39595
:20300000D9F73EF490958095709561957F4F8F4F9F4F0895990F0008550FAA0BE0E8FEEFC4
:2030200016161706E807F907C0F012161306E407F50798F0621B730B840B950B39F40A2671
:2030400061F0232B242B252B21F408950A2609F4A140A6958FEF811D811D089597F99F674A
:2030600080E870E060E008959FEF80EC089500240A941616170618060906089500240A948D
:2030800012161306140605060895092E0394000C11F4882352F0BB0F40F4BF2B11F460FF15
:2030A00004C06F5F7F4F8F4F9F4F089557FD9058440F551F59F05F3F71F04795880F97FBF7
:2030C000991F61F09F3F79F087950895121613061406551FF2CF4695F1DF08C0161617069B
:2030E0001806991FF1CF86957105610508940895E894BB2766277727CB0197F908950E94E6
:203100000A1808F48FEF08950E9497180C9445180E94371838F00E943E1820F0952311F04E
:203120000C942E180C94341811240C9479180E94561870F3959FC1F3950F50E0551F629FB3
:20314000F001729FBB27F00DB11D639FAA27F00DB11DAA1F649F6627B00DA11D661F829FA8
:203160002227B00DA11D621F739FB00DA11D621F839FA00D611D221F749F3327A00D611DD6
:20318000231F849F600D211D822F762F6A2F11249F5750409AF0F1F088234AF0EE0FFF1F0A
:2031A000BB1F661F771F881F91505040A9F79E3F510580F00C942E180C9479185F3FE4F333
:2031C000983ED4F3869577956795B795F795E7959F5FC1F7FE2B880F911D9695879597F9E0
:2031E0000895F894FFCF97FB991F61F09F3F79F087950895121613061406551FF2CF4695D2
:20320000F1DF08C0161617061806991FF1CF86957105610508940895E894BB27662777277E
:20322000CB0197F908950E949E1808F48FEF08950E942B190C94D9180E94CB1838F00E9460
:20324000D21820F0952311F00C94C2180C94C81811240C940D190E94EA1870F3959FC1F3D7
:20326000950F50E0551F629FF001729FBB27F00DB11D639FAA27F00DB11DAA1F649F66275F
:20328000B00DA11D661F829F2227B00DA11D621F739FB00DA11D621F839FA00D611D221F2C
:2032A000749F3327A00D611D231F849F600D211D822F762F6A2F11249F5750409AF0F1F051
:2032C00088234AF0EE0FFF1FBB1F661F771F881F91505040A9F79E3F510580F00C94C21824
:2032E0000C940D195F3FE4F3983ED4F3869577956795B795F795E7959F5FC1F7FE2B880F09
:20330000911D9695879597F90895F894FFCF48F4879577956795B795F7959E3F08F0B0CFA5
:203320009395880F08F09927EE0F9795879508950E943E1A08F481E008950E94B1190C9434
:20334000791A0E94721A58F00E946B1A40F029F45F3F29F00C94621A51110C94AD1A0C94B4
:20336000681A0E948A1A68F39923B1F3552391F3951B550BBB27AA2762177307840738F065
:203380009F5F5F4F220F331F441FAA1FA9F335D00E2E3AF0E0E832D091505040E695001CF9
:2033A000CAF72BD0FE2F29D0660F771F881FBB1F261737074807AB07B0E809F0BB0B802D1F
:2033C000BF01FF2793585F4F3AF09E3F510578F00C94621A0C94AD1A5F3FE4F3983ED4F314
:2033E000869577956795B795F7959F5FC9F7880F911D9695879597F90895E1E0660F771F8F
:20340000881FBB1F621773078407BA0720F0621B730B840BBA0BEE1F88F7E09508950E944D
:20342000921A88F09F5798F0B92F9927B751B0F0E1F0660F771F881F991F1AF0BA95C9F746
:2034400014C0B13091F00E94AC1AB1E008950C94AC1A672F782F8827B85F39F0B93FCCF357
:20346000869577956795B395D9F73EF490958095709561957F4F8F4F9F4F0895990F0008C3
:20348000550FAA0BE0E8FEEF16161706E807F907C0F012161306E407F50798F0621B730BCB
:2034A000840B950B39F40A2661F0232B242B252B21F408950A2609F4A140A6958FEF811D2B
:2034C000811D089597F99F6780E870E060E008959FEF80EC089500240A94161617061806C6
:2034E0000906089500240A9412161306140605060895092E0394000C11F4882352F0BB0FC5
:2035000040F4BF2B11F460FF04C06F5F7F4F8F4F9F4F089557FD9058440F551F59F05F3F76
:2035200071F04795880F97FB991F61F09F3F79F087950895121613061406551FF2CF4695B1
:20354000F1DF08C0161617061806991FF1CF86957105610508940895E894BB27662777273B
:20356000CB0197F908950E943E1A08F48FEF08950E94CB1A0C94791A0E946B1A38F00E9496
:20358000721A20F0952311F00C94621A0C94681A11240C94AD1A0E948A1A70F3959FC1F36B
:2035A000950F50E0551F629FF001729FBB27F00DB11D639FAA27F00DB11DAA1F649F66271C
:2035C000B00DA11D661F829F2227B00DA11D621F739FB00DA11D621F839FA00D611D221FE9
:2035E000749F3327A00D611D231F849F600D211D822F762F6A2F11249F5750409AF0F1F00E
:2036000088234AF0EE0FFF1FBB1F661F771F881F91505040A9F79E3F510580F00C94621A3E
:203620000C94AD1A5F3FE4F3983ED4F3869577956795B795F795E7959F5FC1F7FE2B880F24
:20364000911D9695879597F90895F894FFCFFFFFFFFFFFFFFFFFFFFFFFFFFFFFFFFFFFFF00
:20366000FFFFFFFFFFFFFFFFFFFFFFFFFFFFFFFFFFFFFFFFFFFFFFFFFFFFFFFFFFFFFFFF6A
:20368000FFFFFFFFFFFFFFFFFFFFFFFFFFFFFFFFFFFFFFFFFFFFFFFFFFFFFFFFFFFFFFFF4A
:2036A000FFFFFFFFFFFFFFFFFFFFFFFFFFFFFFFFFFFFFFFFFFFFFFFFFFFFFFFFFFFFFFFF2A
:2036C000FFFFFFFFFFFFFFFFFFFFFFFFFFFFFFFFFFFFFFFFFFFFFFFFFFFFFFFFFFFFFFFF0A
:207E0000112484B714BE81FFF0D085E08093810082E08093C00088E18093C10086E08093FC
:207E2000C20080E18093C4008EE0C9D0259A86E020E33CEF91E0309385002093840096BBAD
:207E4000B09BFECF1D9AA8958150A9F7CC24DD2488248394B5E0AB2EA1E19A2EF3E0BF2E79
:207E6000A2D0813461F49FD0082FAFD0023811F0013811F484E001C083E08DD089C0823404
:207E800011F484E103C0853419F485E0A6D080C0853579F488D0E82EFF2485D0082F10E0A0
:207EA000102F00270E291F29000F111F8ED068016FC0863521F484E090D080E0DECF84364D
:207EC00009F040C070D06FD0082F6DD080E0C81680E7D80618F4F601B7BEE895C0E0D1E0ED
:207EE00062D089930C17E1F7F0E0CF16F0E7DF0618F0F601B7BEE89568D007B600FCFDCF1A
:207F0000A601A0E0B1E02C9130E011968C91119790E0982F8827822B932B1296FA010C016F
:207F200087BEE89511244E5F5F4FF1E0A038BF0751F7F601A7BEE89507B600FCFDCF97BE85
:207F4000E89526C08437B1F42ED02DD0F82E2BD03CD0F601EF2C8F010F5F1F4F84911BD0B8
:207F6000EA94F801C1F70894C11CD11CFA94CF0CD11C0EC0853739F428D08EE10CD085E9AE
:207F80000AD08FE07ACF813511F488E018D01DD080E101D065CF982F8091C00085FFFCCF0A
:207FA0009093C60008958091C00087FFFCCF8091C00084FD01C0A8958091C6000895E0E68F
:207FC000F0E098E1908380830895EDDF803219F088E0F5DFFFCF84E1DECF1F93182FE3DF47
:207FE0001150E9F7F2DF1F91089580E0E8DFEE27FF270994FFFFFFFFFFFFFFFFFFFF040425
:00000001FF
